:100000000C9446000C945D000C945D000C945D0013
:100010000C945D000C945D000C945D000C945D00EC
:100020000C945D000C945D000C945D000C945D00DC
:100030000C945D000C945D000C945D000C945D00CC
:100040000C945D000C945D000C945D000C945D00BC
:100050000C945D000C945D000C945D000C945D00AC
:100060000C945D000C945D000C945D000C945D009C
:100070000C945D000C945D000C945D000C945D008C
:100080000C945D000C945D000C945D0011241FBE67
:10009000CFEFD0E4DEBFCDBF11E0A0E0B1E0E4ECF3
:1000A000F3E000E00BBF02C007900D92AE30B10745
:1000B000D9F70E9499000C94E0010C940000CF93B2
:1000C000DF9300D01F92CDB7DEB789837B836A832D
:1000D00089818A3031F48A819B81BC018DE00E9444
:1000E0005F0080EC90E0FC018081882F90E08072BE
:1000F0009927892BB1F386EC90E02981FC012083BC
:1001000080E090E00F900F900F90DF91CF910895D5
:10011000CF93DF93CDB7DEB78AE790E02AE730E0F0
:10012000F9012081206EFC0120830000DF91CF9136
:100130000895EF92FF920F931F93CF93DF93CDB764
:10014000DEB760970FB6F894DEBF0FBECDBF81E279
:1001500090E0FC01108282E290E02FEFFC0120830E
:1001600084E290E02FEFFC01208385E290E0FC0127
:1001700010820E9488008FEF92E0A0E0B0E08983B7
:100180009A83AB83BC831D821E821F82188689815D
:100190009A81AB81BC81689412F8B695A795979522
:1001A00087951694D1F789879A87AB87BC8788E7AC
:1001B00090E0FC0180819181CC01A0E0B0E08D83D2
:1001C0009E83AF83B8878D819E81AF81B8858D87EF
:1001D0009E87AF87B88B2D853E854F855889898549
:1001E0009A85AB85BC8582179307A407B50730F0C5
:1001F00085E290E021E0FC012083BDCF89859A85CE
:10020000AB85BC859C01AD01220F331F441F551FD8
:100210008D859E85AF85B889281739074A075B0702
:1002200030F085E290E023E0FC012083A4CF298513
:100230003A854B855C85DA01C901880F991FAA1F91
:10024000BB1F280F391F4A1F5B1F8D859E85AF85F9
:10025000B889281739074A075B0730F085E290E034
:1002600027E0FC01208387CF89859A85AB85BC85F3
:100270009C01AD01220F331F441F551F220F331F56
:10028000441F551F8D859E85AF85B889281739076E
:100290004A075B0730F085E290E02FE0FC01208305
:1002A0006ACF29853A854B855C85DA01C901880FBB
:1002B000991FAA1FBB1F880F991FAA1FBB1F280FBA
:1002C000391F4A1F5B1F8D859E85AF85B88928170A
:1002D00039074A075B0730F085E290E02FE1FC0127
:1002E000208349CF29853A854B855C85DA01C90190
:1002F000880F991FAA1FBB1F820F931FA41FB51F32
:10030000880F991FAA1FBB1F9C01AD018D859E857B
:10031000AF85B889281739074A075B0730F085E2AF
:1003200090E02FE3FC01208326CF29853A854B8579
:100330005C85DA01C901880F991FAA1FBB1F880FAE
:10034000991FAA1FBB1F880F991FAA1FBB1F7C01E3
:100350008D01E21AF30A040B150BA80197018D8594
:100360009E85AF85B889281739074A075B0730F0A3
:1003700085E290E02FE7FC012083FDCE89859A85F8
:10038000AB85BC85880F991FAA1FBB1F880F991FBB
:10039000AA1FBB1F880F991FAA1FBB1F9C01AD017D
:1003A0008D859E85AF85B889281739074A075B0771
:1003B00008F4E1CE85E290E02FEFFC012083DBCE54
:0403C000F894FFCFDF
:0E03C40000000002000000005F0000000000CA
:00000001FF
